:03000000020006F5
:03005F0002000399
:0300030002006296
:1000620075087F75093F750A1F750B0F750C0775AB
:100072000D03750E01750F007F008F060F74075E6A
:100082002408F98780900001C00712009C7580FF48
:1000920090000112009CD00780E0AE82AF837C000A
:1000A2007D00C3EC9EED9F501B7A237B07EA24FF61
:1000B200F8EB34FFF988028903E84970F00CBC00C0
:0500C200E10D80DE22CB
:06003500E478FFF6D8FD9F
:100013007900E94400601B7A009000CB780175A059
:1000230000E493F2A308B8000205A0D9F4DAF2754C
:02003300A0FF2C
:10003B007800E84400600A790175A000E4F309D860
:10004B00FC7800E84400600C7900900001E4F0A318
:04005B00D8FCD9FAFA
:0D00060075810F1200C7E582600302000340
:0400C700758200221C
:00000001FF
