:03000000020006F5
:03005F0002000399
:0300030002006296
:1000620075A00075807F7F00E580C313F580900046
:100072000FC00712009DD0070FBF070040EA75802E
:10008200FE7F00E58025E0F58090000FC00712009A
:100092009DD0070FBF070040EA80C8AE82AF837CC5
:1000A200007D00C3EC9EED9F501B7A377B07EA244C
:1000B200FFF8EB34FFF988028903E84970F00CBCC1
:0600C20000E10D80DE22CA
:06003500E478FFF6D8FD9F
:100013007900E94400601B7A009000CC780175A058
:1000230000E493F2A308B8000205A0D9F4DAF2754C
:02003300A0FF2C
:10003B007800E84400600A790175A000E4F309D860
:10004B00FC7800E84400600C7900900001E4F0A318
:04005B00D8FCD9FAFA
:0D0006007581071200C8E582600302000347
:0400C800758200221B
:00000001FF
