:03000000020006F5
:03005F0002000399
:0300030002006296
:1000620075083F750906750A5B750B4F750C667549
:100072000D6D750E7D750F0775107F75116F7F0001
:100082008F060F75F00AEE84E5F02408F987809058
:100092000032C00712009DD00780E5AE82AF837C9C
:1000A200007D00C3EC9EED9F501B7A237B07EA2460
:1000B200FFF8EB34FFF988028903E84970F00CBCC1
:0600C20000E10D80DE22CA
:06003500E478FFF6D8FD9F
:100013007900E94400601B7A009000CC780175A058
:1000230000E493F2A308B8000205A0D9F4DAF2754C
:02003300A0FF2C
:10003B007800E84400600A790175A000E4F309D860
:10004B00FC7800E84400600C7900900001E4F0A318
:04005B00D8FCD9FAFA
:0D0006007581111200C8E58260030200033D
:0400C800758200221B
:00000001FF
