:03000000020006F5
:03005F0002000399
:0300030002006296
:1000620090000A12006D7580FE80FEAE82AF837C26
:10007200007D00C3EC9EED9F501B7A377B07EA247C
:10008200FFF8EB34FFF988028903E84970F00CBCF1
:0600920000E10D80DE22FA
:06003500E478FFF6D8FD9F
:100013007900E94400601B7A0090009C780175A088
:1000230000E493F2A308B8000205A0D9F4DAF2754C
:02003300A0FF2C
:10003B007800E84400600A790175A000E4F309D860
:10004B00FC7800E84400600C7900900001E4F0A318
:04005B00D8FCD9FAFA
:0D000600758107120098E582600302000377
:04009800758200224B
:00000001FF
